{
  "_format": "hh3-artifact-1",
  "contractName": "MyNFT",
  "sourceName": "contracts/MyNFT.sol",
  "abi": [
    {
      "inputs": [],
      "stateMutability": "nonpayable",
      "type": "constructor"
    },
    {
      "inputs": [
        {
          "internalType": "address",
          "name": "sender",
          "type": "address"
        },
        {
          "internalType": "uint256",
          "name": "tokenId",
          "type": "uint256"
        },
        {
          "internalType": "address",
          "name": "owner",
          "type": "address"
        }
      ],
      "name": "ERC721IncorrectOwner",
      "type": "error"
    },
    {
      "inputs": [
        {
          "internalType": "address",
          "name": "operator",
          "type": "address"
        },
        {
          "internalType": "uint256",
          "name": "tokenId",
          "type": "uint256"
        }
      ],
      "name": "ERC721InsufficientApproval",
      "type": "error"
    },
    {
      "inputs": [
        {
          "internalType": "address",
          "name": "approver",
          "type": "address"
        }
      ],
      "name": "ERC721InvalidApprover",
      "type": "error"
    },
    {
      "inputs": [
        {
          "internalType": "address",
          "name": "operator",
          "type": "address"
        }
      ],
      "name": "ERC721InvalidOperator",
      "type": "error"
    },
    {
      "inputs": [
        {
          "internalType": "address",
          "name": "owner",
          "type": "address"
        }
      ],
      "name": "ERC721InvalidOwner",
      "type": "error"
    },
    {
      "inputs": [
        {
          "internalType": "address",
          "name": "receiver",
          "type": "address"
        }
      ],
      "name": "ERC721InvalidReceiver",
      "type": "error"
    },
    {
      "inputs": [
        {
          "internalType": "address",
          "name": "sender",
          "type": "address"
        }
      ],
      "name": "ERC721InvalidSender",
      "type": "error"
    },
    {
      "inputs": [
        {
          "internalType": "uint256",
          "name": "tokenId",
          "type": "uint256"
        }
      ],
      "name": "ERC721NonexistentToken",
      "type": "error"
    },
    {
      "inputs": [
        {
          "internalType": "address",
          "name": "owner",
          "type": "address"
        }
      ],
      "name": "OwnableInvalidOwner",
      "type": "error"
    },
    {
      "inputs": [
        {
          "internalType": "address",
          "name": "account",
          "type": "address"
        }
      ],
      "name": "OwnableUnauthorizedAccount",
      "type": "error"
    },
    {
      "anonymous": false,
      "inputs": [
        {
          "indexed": true,
          "internalType": "address",
          "name": "owner",
          "type": "address"
        },
        {
          "indexed": true,
          "internalType": "address",
          "name": "approved",
          "type": "address"
        },
        {
          "indexed": true,
          "internalType": "uint256",
          "name": "tokenId",
          "type": "uint256"
        }
      ],
      "name": "Approval",
      "type": "event"
    },
    {
      "anonymous": false,
      "inputs": [
        {
          "indexed": true,
          "internalType": "address",
          "name": "owner",
          "type": "address"
        },
        {
          "indexed": true,
          "internalType": "address",
          "name": "operator",
          "type": "address"
        },
        {
          "indexed": false,
          "internalType": "bool",
          "name": "approved",
          "type": "bool"
        }
      ],
      "name": "ApprovalForAll",
      "type": "event"
    },
    {
      "anonymous": false,
      "inputs": [
        {
          "indexed": false,
          "internalType": "uint256",
          "name": "_fromTokenId",
          "type": "uint256"
        },
        {
          "indexed": false,
          "internalType": "uint256",
          "name": "_toTokenId",
          "type": "uint256"
        }
      ],
      "name": "BatchMetadataUpdate",
      "type": "event"
    },
    {
      "anonymous": false,
      "inputs": [
        {
          "indexed": false,
          "internalType": "uint256",
          "name": "_tokenId",
          "type": "uint256"
        }
      ],
      "name": "MetadataUpdate",
      "type": "event"
    },
    {
      "anonymous": false,
      "inputs": [
        {
          "indexed": true,
          "internalType": "address",
          "name": "to",
          "type": "address"
        },
        {
          "indexed": true,
          "internalType": "uint256",
          "name": "tokenId",
          "type": "uint256"
        },
        {
          "indexed": false,
          "internalType": "string",
          "name": "tokenURI",
          "type": "string"
        }
      ],
      "name": "NFTMinted",
      "type": "event"
    },
    {
      "anonymous": false,
      "inputs": [
        {
          "indexed": true,
          "internalType": "address",
          "name": "previousOwner",
          "type": "address"
        },
        {
          "indexed": true,
          "internalType": "address",
          "name": "newOwner",
          "type": "address"
        }
      ],
      "name": "OwnershipTransferred",
      "type": "event"
    },
    {
      "anonymous": false,
      "inputs": [
        {
          "indexed": true,
          "internalType": "uint256",
          "name": "tokenId",
          "type": "uint256"
        },
        {
          "indexed": false,
          "internalType": "string",
          "name": "newTokenURI",
          "type": "string"
        }
      ],
      "name": "TokenURIUpdated",
      "type": "event"
    },
    {
      "anonymous": false,
      "inputs": [
        {
          "indexed": true,
          "internalType": "address",
          "name": "from",
          "type": "address"
        },
        {
          "indexed": true,
          "internalType": "address",
          "name": "to",
          "type": "address"
        },
        {
          "indexed": true,
          "internalType": "uint256",
          "name": "tokenId",
          "type": "uint256"
        }
      ],
      "name": "Transfer",
      "type": "event"
    },
    {
      "inputs": [
        {
          "internalType": "address",
          "name": "to",
          "type": "address"
        },
        {
          "internalType": "uint256",
          "name": "tokenId",
          "type": "uint256"
        }
      ],
      "name": "approve",
      "outputs": [],
      "stateMutability": "nonpayable",
      "type": "function"
    },
    {
      "inputs": [
        {
          "internalType": "address",
          "name": "owner",
          "type": "address"
        }
      ],
      "name": "balanceOf",
      "outputs": [
        {
          "internalType": "uint256",
          "name": "",
          "type": "uint256"
        }
      ],
      "stateMutability": "view",
      "type": "function"
    },
    {
      "inputs": [
        {
          "internalType": "address",
          "name": "to",
          "type": "address"
        },
        {
          "internalType": "string[]",
          "name": "uris",
          "type": "string[]"
        }
      ],
      "name": "batchMint",
      "outputs": [
        {
          "internalType": "uint256[]",
          "name": "",
          "type": "uint256[]"
        }
      ],
      "stateMutability": "nonpayable",
      "type": "function"
    },
    {
      "inputs": [
        {
          "internalType": "uint256",
          "name": "tokenId",
          "type": "uint256"
        }
      ],
      "name": "getApproved",
      "outputs": [
        {
          "internalType": "address",
          "name": "",
          "type": "address"
        }
      ],
      "stateMutability": "view",
      "type": "function"
    },
    {
      "inputs": [],
      "name": "getContractInfo",
      "outputs": [
        {
          "internalType": "string",
          "name": "",
          "type": "string"
        },
        {
          "internalType": "string",
          "name": "",
          "type": "string"
        },
        {
          "internalType": "uint256",
          "name": "",
          "type": "uint256"
        }
      ],
      "stateMutability": "view",
      "type": "function"
    },
    {
      "inputs": [],
      "name": "getNextTokenId",
      "outputs": [
        {
          "internalType": "uint256",
          "name": "",
          "type": "uint256"
        }
      ],
      "stateMutability": "view",
      "type": "function"
    },
    {
      "inputs": [
        {
          "internalType": "uint256",
          "name": "tokenId",
          "type": "uint256"
        }
      ],
      "name": "getTokenInfo",
      "outputs": [
        {
          "internalType": "address",
          "name": "owner",
          "type": "address"
        },
        {
          "internalType": "string",
          "name": "uri",
          "type": "string"
        }
      ],
      "stateMutability": "view",
      "type": "function"
    },
    {
      "inputs": [
        {
          "internalType": "address",
          "name": "owner",
          "type": "address"
        }
      ],
      "name": "getTokensByOwner",
      "outputs": [
        {
          "internalType": "uint256[]",
          "name": "",
          "type": "uint256[]"
        }
      ],
      "stateMutability": "view",
      "type": "function"
    },
    {
      "inputs": [
        {
          "internalType": "address",
          "name": "owner",
          "type": "address"
        },
        {
          "internalType": "address",
          "name": "operator",
          "type": "address"
        }
      ],
      "name": "isApprovedForAll",
      "outputs": [
        {
          "internalType": "bool",
          "name": "",
          "type": "bool"
        }
      ],
      "stateMutability": "view",
      "type": "function"
    },
    {
      "inputs": [
        {
          "internalType": "string",
          "name": "uri",
          "type": "string"
        }
      ],
      "name": "mint",
      "outputs": [
        {
          "internalType": "uint256",
          "name": "",
          "type": "uint256"
        }
      ],
      "stateMutability": "nonpayable",
      "type": "function"
    },
    {
      "inputs": [],
      "name": "name",
      "outputs": [
        {
          "internalType": "string",
          "name": "",
          "type": "string"
        }
      ],
      "stateMutability": "view",
      "type": "function"
    },
    {
      "inputs": [],
      "name": "owner",
      "outputs": [
        {
          "internalType": "address",
          "name": "",
          "type": "address"
        }
      ],
      "stateMutability": "view",
      "type": "function"
    },
    {
      "inputs": [
        {
          "internalType": "uint256",
          "name": "tokenId",
          "type": "uint256"
        }
      ],
      "name": "ownerOf",
      "outputs": [
        {
          "internalType": "address",
          "name": "",
          "type": "address"
        }
      ],
      "stateMutability": "view",
      "type": "function"
    },
    {
      "inputs": [],
      "name": "renounceOwnership",
      "outputs": [],
      "stateMutability": "nonpayable",
      "type": "function"
    },
    {
      "inputs": [
        {
          "internalType": "address",
          "name": "to",
          "type": "address"
        },
        {
          "internalType": "string",
          "name": "uri",
          "type": "string"
        }
      ],
      "name": "safeMint",
      "outputs": [
        {
          "internalType": "uint256",
          "name": "",
          "type": "uint256"
        }
      ],
      "stateMutability": "nonpayable",
      "type": "function"
    },
    {
      "inputs": [
        {
          "internalType": "address",
          "name": "from",
          "type": "address"
        },
        {
          "internalType": "address",
          "name": "to",
          "type": "address"
        },
        {
          "internalType": "uint256",
          "name": "tokenId",
          "type": "uint256"
        }
      ],
      "name": "safeTransferFrom",
      "outputs": [],
      "stateMutability": "nonpayable",
      "type": "function"
    },
    {
      "inputs": [
        {
          "internalType": "address",
          "name": "from",
          "type": "address"
        },
        {
          "internalType": "address",
          "name": "to",
          "type": "address"
        },
        {
          "internalType": "uint256",
          "name": "tokenId",
          "type": "uint256"
        },
        {
          "internalType": "bytes",
          "name": "data",
          "type": "bytes"
        }
      ],
      "name": "safeTransferFrom",
      "outputs": [],
      "stateMutability": "nonpayable",
      "type": "function"
    },
    {
      "inputs": [
        {
          "internalType": "address",
          "name": "operator",
          "type": "address"
        },
        {
          "internalType": "bool",
          "name": "approved",
          "type": "bool"
        }
      ],
      "name": "setApprovalForAll",
      "outputs": [],
      "stateMutability": "nonpayable",
      "type": "function"
    },
    {
      "inputs": [
        {
          "internalType": "bytes4",
          "name": "interfaceId",
          "type": "bytes4"
        }
      ],
      "name": "supportsInterface",
      "outputs": [
        {
          "internalType": "bool",
          "name": "",
          "type": "bool"
        }
      ],
      "stateMutability": "view",
      "type": "function"
    },
    {
      "inputs": [],
      "name": "symbol",
      "outputs": [
        {
          "internalType": "string",
          "name": "",
          "type": "string"
        }
      ],
      "stateMutability": "view",
      "type": "function"
    },
    {
      "inputs": [
        {
          "internalType": "uint256",
          "name": "tokenId",
          "type": "uint256"
        }
      ],
      "name": "tokenExists",
      "outputs": [
        {
          "internalType": "bool",
          "name": "",
          "type": "bool"
        }
      ],
      "stateMutability": "view",
      "type": "function"
    },
    {
      "inputs": [
        {
          "internalType": "uint256",
          "name": "tokenId",
          "type": "uint256"
        }
      ],
      "name": "tokenURI",
      "outputs": [
        {
          "internalType": "string",
          "name": "",
          "type": "string"
        }
      ],
      "stateMutability": "view",
      "type": "function"
    },
    {
      "inputs": [],
      "name": "totalSupply",
      "outputs": [
        {
          "internalType": "uint256",
          "name": "",
          "type": "uint256"
        }
      ],
      "stateMutability": "view",
      "type": "function"
    },
    {
      "inputs": [
        {
          "internalType": "address",
          "name": "from",
          "type": "address"
        },
        {
          "internalType": "address",
          "name": "to",
          "type": "address"
        },
        {
          "internalType": "uint256",
          "name": "tokenId",
          "type": "uint256"
        }
      ],
      "name": "transferFrom",
      "outputs": [],
      "stateMutability": "nonpayable",
      "type": "function"
    },
    {
      "inputs": [
        {
          "internalType": "address",
          "name": "newOwner",
          "type": "address"
        }
      ],
      "name": "transferOwnership",
      "outputs": [],
      "stateMutability": "nonpayable",
      "type": "function"
    },
    {
      "inputs": [
        {
          "internalType": "uint256",
          "name": "tokenId",
          "type": "uint256"
        },
        {
          "internalType": "string",
          "name": "newUri",
          "type": "string"
        }
      ],
      "name": "updateTokenURI",
      "outputs": [],
      "stateMutability": "nonpayable",
      "type": "function"
    }
  ],
  "bytecode": "0x608060405234801561000f575f5ffd5b503360405180604001604052806005815260200164135e53919560da1b815250604051806040016040528060048152602001631353919560e21b815250815f908161005a919061018f565b506001610067828261018f565b5050506001600160a01b03811661009757604051631e4fbdf760e01b81525f600482015260240160405180910390fd5b6100a0816100a6565b50610249565b600780546001600160a01b038381166001600160a01b0319831681179093556040519116919082907f8be0079c531659141344cd1fd0a4f28419497f9722a3daafe3b4186f6b6457e0905f90a35050565b634e487b7160e01b5f52604160045260245ffd5b600181811c9082168061011f57607f821691505b60208210810361013d57634e487b7160e01b5f52602260045260245ffd5b50919050565b601f82111561018a57805f5260205f20601f840160051c810160208510156101685750805b601f840160051c820191505b81811015610187575f8155600101610174565b50505b505050565b81516001600160401b038111156101a8576101a86100f7565b6101bc816101b6845461010b565b84610143565b6020601f8211600181146101ee575f83156101d75750848201515b5f19600385901b1c1916600184901b178455610187565b5f84815260208120601f198516915b8281101561021d57878501518255602094850194600190920191016101fd565b508482101561023a57868401515f19600387901b60f8161c191681555b50505050600190811b01905550565b611ae7806102565f395ff3fe608060405234801561000f575f5ffd5b5060043610610186575f3560e01c80637cc1f867116100d9578063c87b56dd11610093578063d85d3d271161006e578063d85d3d2714610358578063e985e9c51461036b578063f2f18baa1461037e578063f2fde38b14610391575f5ffd5b8063c87b56dd1461032a578063caa0f92a1461033d578063d204c45e14610345575f5ffd5b80637cc1f867146102b35780638c7a63ae146102ca5780638da5cb5b146102eb57806395d89b41146102fc578063a22cb46514610304578063b88d4fde14610317575f5ffd5b806318e97fd11161014457806342842e0e1161011f57806342842e0e146102725780636352211e1461028557806370a0823114610298578063715018a6146102ab575f5ffd5b806318e97fd11461022c57806323b872dd1461023f57806340398d6714610252575f5ffd5b8062923f9e1461018a57806301ffc9a7146101b257806306fdde03146101c5578063081812fc146101da578063095ea7b31461020557806318160ddd1461021a575b5f5ffd5b61019d6101983660046113b0565b6103a4565b60405190151581526020015b60405180910390f35b61019d6101c03660046113dc565b610412565b6101cd610422565b6040516101a99190611425565b6101ed6101e83660046113b0565b6104b1565b6040516001600160a01b0390911681526020016101a9565b61021861021336600461144b565b6104d8565b005b6008545b6040519081526020016101a9565b61021861023a36600461152f565b6104e7565b61021861024d366004611572565b61058a565b6102656102603660046115b0565b610613565b6040516101a991906115cb565b610218610280366004611572565b6106f5565b6101ed6102933660046113b0565b610714565b61021e6102a63660046115b0565b61071e565b610218610763565b6102bb610776565b6040516101a99392919061160d565b6102dd6102d83660046113b0565b610798565b6040516101a9929190611642565b6007546001600160a01b03166101ed565b6101cd6107b6565b610218610312366004611665565b6107c5565b6102186103253660046116a0565b6107d0565b6101cd6103383660046113b0565b6107e8565b61021e6107f3565b61021e61035336600461171a565b610808565b61021e610366366004611750565b61087d565b61019d610379366004611781565b610888565b61026561038c3660046117ad565b6108b5565b61021861039f3660046115b0565b6109ee565b6040516331a9108f60e11b8152600481018290525f903090636352211e90602401602060405180830381865afa9250505080156103fe575060408051601f3d908101601f191682019092526103fb9181019061188b565b60015b61040957505f919050565b50600192915050565b5f61041c82610a2b565b92915050565b60605f8054610430906118a6565b80601f016020809104026020016040519081016040528092919081815260200182805461045c906118a6565b80156104a75780601f1061047e576101008083540402835291602001916104a7565b820191905f5260205f20905b81548152906001019060200180831161048a57829003601f168201915b5050505050905090565b5f6104bb82610a4f565b505f828152600460205260409020546001600160a01b031661041c565b6104e3828233610a87565b5050565b6104ef610a94565b6104f882610714565b505f8151116105445760405162461bcd60e51b81526020600482015260136024820152725552492063616e6e6f7420626520656d70747960681b60448201526064015b60405180910390fd5b61054e8282610ac1565b817f931f495b9a8e5d8e61946ea5d61e021f636cfe213a801f97589c18c152e408bd8260405161057e9190611425565b60405180910390a25050565b6001600160a01b0382166105b357604051633250574960e11b81525f600482015260240161053b565b5f6105bf838333610b10565b9050836001600160a01b0316816001600160a01b03161461060d576040516364283d7b60e01b81526001600160a01b038086166004830152602482018490528216604482015260640161053b565b50505050565b60605f61061f8361071e565b90505f816001600160401b0381111561063a5761063a611475565b604051908082528060200260200182016040528015610663578160200160208202803683370190505b5090505f60015b60085481116106eb5761067c816103a4565b80156106a15750856001600160a01b031661069682610714565b6001600160a01b0316145b156106d957808383815181106106b9576106b96118de565b6020908102919091010152816106ce81611906565b9250508382146106eb575b806106e381611906565b91505061066a565b5090949350505050565b61070f83838360405180602001604052805f8152506107d0565b505050565b5f61041c82610a4f565b5f6001600160a01b038216610748576040516322718ad960e21b81525f600482015260240161053b565b506001600160a01b03165f9081526003602052604090205490565b61076b610a94565b6107745f610b24565b565b6060805f610782610422565b61078a6107b6565b600854925092509250909192565b5f60606107a483610714565b91506107af836107e8565b9050915091565b606060018054610430906118a6565b6104e3338383610b75565b6107db84848461058a565b61060d3385858585610c13565b606061041c82610d3b565b5f6008546001610803919061191e565b905090565b600880545f918261081883611906565b909155505060085461082a8482610e3e565b6108348184610ac1565b80846001600160a01b03167fd35bb95e09c04b219e35047ce7b7b300e3384264ef84a40456943dbc0fc17c148560405161086e9190611425565b60405180910390a39392505050565b5f61041c3383610808565b6001600160a01b039182165f90815260056020908152604080832093909416825291909152205460ff1690565b60606108bf610a94565b5f8251116109025760405162461bcd60e51b815260206004820152601060248201526f139bc81554925cc81c1c9bdd9a59195960821b604482015260640161053b565b600a8251111561094d5760405162461bcd60e51b8152602060048201526016602482015275546f6f206d616e79205552497320286d61782031302960501b604482015260640161053b565b5f82516001600160401b0381111561096757610967611475565b604051908082528060200260200182016040528015610990578160200160208202803683370190505b5090505f5b83518110156109e6576109c1858583815181106109b4576109b46118de565b6020026020010151610808565b8282815181106109d3576109d36118de565b6020908102919091010152600101610995565b509392505050565b6109f6610a94565b6001600160a01b038116610a1f57604051631e4fbdf760e01b81525f600482015260240161053b565b610a2881610b24565b50565b5f6001600160e01b03198216632483248360e11b148061041c575061041c82610e57565b5f818152600260205260408120546001600160a01b03168061041c57604051637e27328960e01b81526004810184905260240161053b565b61070f8383836001610ea6565b6007546001600160a01b031633146107745760405163118cdaa760e01b815233600482015260240161053b565b5f828152600660205260409020610ad88282611975565b506040518281527ff8e1a15aba9398e019f0b49df1a4fde98ee17ae345cb5f6b5e2c27f5033e8ce79060200160405180910390a15050565b5f610b1c848484610faa565b949350505050565b600780546001600160a01b038381166001600160a01b0319831681179093556040519116919082907f8be0079c531659141344cd1fd0a4f28419497f9722a3daafe3b4186f6b6457e0905f90a35050565b6001600160a01b038216610ba757604051630b61174360e31b81526001600160a01b038316600482015260240161053b565b6001600160a01b038381165f81815260056020908152604080832094871680845294825291829020805460ff191686151590811790915591519182527f17307eab39ab6107e8899845ad3d59bd9653f200f220920489ca2b5937696c31910160405180910390a3505050565b6001600160a01b0383163b15610d3457604051630a85bd0160e11b81526001600160a01b0384169063150b7a0290610c55908890889087908790600401611a2f565b6020604051808303815f875af1925050508015610c8f575060408051601f3d908101601f19168201909252610c8c91810190611a6b565b60015b610cf6573d808015610cbc576040519150601f19603f3d011682016040523d82523d5f602084013e610cc1565b606091505b5080515f03610cee57604051633250574960e11b81526001600160a01b038516600482015260240161053b565b805160208201fd5b6001600160e01b03198116630a85bd0160e11b14610d3257604051633250574960e11b81526001600160a01b038516600482015260240161053b565b505b5050505050565b6060610d4682610a4f565b505f8281526006602052604081208054610d5f906118a6565b80601f0160208091040260200160405190810160405280929190818152602001828054610d8b906118a6565b8015610dd65780601f10610dad57610100808354040283529160200191610dd6565b820191905f5260205f20905b815481529060010190602001808311610db957829003601f168201915b505050505090505f610df260408051602081019091525f815290565b905080515f03610e03575092915050565b815115610e35578082604051602001610e1d929190611a9d565b60405160208183030381529060405292505050919050565b610b1c8461109c565b6104e3828260405180602001604052805f81525061110d565b5f6001600160e01b031982166380ac58cd60e01b1480610e8757506001600160e01b03198216635b5e139f60e01b145b8061041c57506301ffc9a760e01b6001600160e01b031983161461041c565b8080610eba57506001600160a01b03821615155b15610f7b575f610ec984610a4f565b90506001600160a01b03831615801590610ef55750826001600160a01b0316816001600160a01b031614155b8015610f085750610f068184610888565b155b15610f315760405163a9fbf51f60e01b81526001600160a01b038416600482015260240161053b565b8115610f795783856001600160a01b0316826001600160a01b03167f8c5be1e5ebec7d5bd14f71427d1e84f3dd0314c0f7b2291e5b200ac8c7c3b92560405160405180910390a45b505b50505f90815260046020526040902080546001600160a01b0319166001600160a01b0392909216919091179055565b5f828152600260205260408120546001600160a01b0390811690831615610fd657610fd6818486611124565b6001600160a01b0381161561101057610ff15f855f5f610ea6565b6001600160a01b0381165f90815260036020526040902080545f190190555b6001600160a01b0385161561103e576001600160a01b0385165f908152600360205260409020805460010190555b5f8481526002602052604080822080546001600160a01b0319166001600160a01b0389811691821790925591518793918516917fddf252ad1be2c89b69c2b068fc378daa952ba7f163c4a11628f55a4df523b3ef91a4949350505050565b60606110a782610a4f565b505f6110bd60408051602081019091525f815290565b90505f8151116110db5760405180602001604052805f815250611106565b806110e584611188565b6040516020016110f6929190611a9d565b6040516020818303038152906040525b9392505050565b6111178383611217565b61070f335f858585610c13565b61112f838383611278565b61070f576001600160a01b03831661115d57604051637e27328960e01b81526004810182905260240161053b565b60405163177e802f60e01b81526001600160a01b03831660048201526024810182905260440161053b565b60605f611194836112d9565b60010190505f816001600160401b038111156111b2576111b2611475565b6040519080825280601f01601f1916602001820160405280156111dc576020820181803683370190505b5090508181016020015b5f19016f181899199a1a9b1b9c1cb0b131b232b360811b600a86061a8153600a85049450846111e657509392505050565b6001600160a01b03821661124057604051633250574960e11b81525f600482015260240161053b565b5f61124c83835f610b10565b90506001600160a01b0381161561070f576040516339e3563760e11b81525f600482015260240161053b565b5f6001600160a01b03831615801590610b1c5750826001600160a01b0316846001600160a01b031614806112b157506112b18484610888565b80610b1c5750505f908152600460205260409020546001600160a01b03908116911614919050565b5f8072184f03e93ff9f4daa797ed6e38ed64bf6a1f0160401b83106113175772184f03e93ff9f4daa797ed6e38ed64bf6a1f0160401b830492506040015b6d04ee2d6d415b85acef81000000008310611343576d04ee2d6d415b85acef8100000000830492506020015b662386f26fc10000831061136157662386f26fc10000830492506010015b6305f5e1008310611379576305f5e100830492506008015b612710831061138d57612710830492506004015b6064831061139f576064830492506002015b600a831061041c5760010192915050565b5f602082840312156113c0575f5ffd5b5035919050565b6001600160e01b031981168114610a28575f5ffd5b5f602082840312156113ec575f5ffd5b8135611106816113c7565b5f81518084528060208401602086015e5f602082860101526020601f19601f83011685010191505092915050565b602081525f61110660208301846113f7565b6001600160a01b0381168114610a28575f5ffd5b5f5f6040838503121561145c575f5ffd5b823561146781611437565b946020939093013593505050565b634e487b7160e01b5f52604160045260245ffd5b604051601f8201601f191681016001600160401b03811182821017156114b1576114b1611475565b604052919050565b5f5f6001600160401b038411156114d2576114d2611475565b50601f8301601f19166020016114e781611489565b9150508281528383830111156114fb575f5ffd5b828260208301375f602084830101529392505050565b5f82601f830112611520575f5ffd5b611106838335602085016114b9565b5f5f60408385031215611540575f5ffd5b8235915060208301356001600160401b0381111561155c575f5ffd5b61156885828601611511565b9150509250929050565b5f5f5f60608486031215611584575f5ffd5b833561158f81611437565b9250602084013561159f81611437565b929592945050506040919091013590565b5f602082840312156115c0575f5ffd5b813561110681611437565b602080825282518282018190525f918401906040840190835b818110156116025783518352602093840193909201916001016115e4565b509095945050505050565b606081525f61161f60608301866113f7565b828103602084015261163181866113f7565b915050826040830152949350505050565b6001600160a01b03831681526040602082018190525f90610b1c908301846113f7565b5f5f60408385031215611676575f5ffd5b823561168181611437565b915060208301358015158114611695575f5ffd5b809150509250929050565b5f5f5f5f608085870312156116b3575f5ffd5b84356116be81611437565b935060208501356116ce81611437565b92506040850135915060608501356001600160401b038111156116ef575f5ffd5b8501601f810187136116ff575f5ffd5b61170e878235602084016114b9565b91505092959194509250565b5f5f6040838503121561172b575f5ffd5b823561173681611437565b915060208301356001600160401b0381111561155c575f5ffd5b5f60208284031215611760575f5ffd5b81356001600160401b03811115611775575f5ffd5b610b1c84828501611511565b5f5f60408385031215611792575f5ffd5b823561179d81611437565b9150602083013561169581611437565b5f5f604083850312156117be575f5ffd5b82356117c981611437565b915060208301356001600160401b038111156117e3575f5ffd5b8301601f810185136117f3575f5ffd5b80356001600160401b0381111561180c5761180c611475565b8060051b61181c60208201611489565b91825260208184018101929081019088841115611837575f5ffd5b6020850192505b8383101561187c5782356001600160401b0381111561185b575f5ffd5b61186a8a602083890101611511565b8352506020928301929091019061183e565b80955050505050509250929050565b5f6020828403121561189b575f5ffd5b815161110681611437565b600181811c908216806118ba57607f821691505b6020821081036118d857634e487b7160e01b5f52602260045260245ffd5b50919050565b634e487b7160e01b5f52603260045260245ffd5b634e487b7160e01b5f52601160045260245ffd5b5f60018201611917576119176118f2565b5060010190565b8082018082111561041c5761041c6118f2565b601f82111561070f57805f5260205f20601f840160051c810160208510156119565750805b601f840160051c820191505b81811015610d34575f8155600101611962565b81516001600160401b0381111561198e5761198e611475565b6119a28161199c84546118a6565b84611931565b6020601f8211600181146119d4575f83156119bd5750848201515b5f19600385901b1c1916600184901b178455610d34565b5f84815260208120601f198516915b82811015611a0357878501518255602094850194600190920191016119e3565b5084821015611a2057868401515f19600387901b60f8161c191681555b50505050600190811b01905550565b6001600160a01b03858116825284166020820152604081018390526080606082018190525f90611a61908301846113f7565b9695505050505050565b5f60208284031215611a7b575f5ffd5b8151611106816113c7565b5f81518060208401855e5f93019283525090919050565b5f610b1c611aab8386611a86565b84611a8656fea26469706673582212203433f3e9b247ce529904df74225d769c730a524044ae721dbfcb1c4e2b16c2a364736f6c634300081c0033",
  "linkReferences": {},
  "deployedLinkReferences": {},
  "immutableReferences": {},
  "inputSourceName": "project/contracts/MyNFT.sol",
  "buildInfoId": "solc-0_8_28-37d5b58eaff53a7bde27dbc3646d46f26a607f21"
}