{
  "_format": "hh3-artifact-1",
  "contractName": "BeggingContract",
  "sourceName": "contracts/BeggingContract.sol",
  "abi": [
    {
      "inputs": [],
      "stateMutability": "nonpayable",
      "type": "constructor"
    },
    {
      "anonymous": false,
      "inputs": [
        {
          "indexed": true,
          "internalType": "address",
          "name": "donor",
          "type": "address"
        },
        {
          "indexed": false,
          "internalType": "uint256",
          "name": "amount",
          "type": "uint256"
        }
      ],
      "name": "DonationReceived",
      "type": "event"
    },
    {
      "anonymous": false,
      "inputs": [
        {
          "indexed": true,
          "internalType": "address",
          "name": "owner",
          "type": "address"
        },
        {
          "indexed": false,
          "internalType": "uint256",
          "name": "amount",
          "type": "uint256"
        }
      ],
      "name": "Withdrawal",
      "type": "event"
    },
    {
      "inputs": [],
      "name": "donate",
      "outputs": [],
      "stateMutability": "payable",
      "type": "function"
    },
    {
      "inputs": [
        {
          "internalType": "address",
          "name": "",
          "type": "address"
        }
      ],
      "name": "donations",
      "outputs": [
        {
          "internalType": "uint256",
          "name": "",
          "type": "uint256"
        }
      ],
      "stateMutability": "view",
      "type": "function"
    },
    {
      "inputs": [],
      "name": "getContractBalance",
      "outputs": [
        {
          "internalType": "uint256",
          "name": "",
          "type": "uint256"
        }
      ],
      "stateMutability": "view",
      "type": "function"
    },
    {
      "inputs": [
        {
          "internalType": "address",
          "name": "donor",
          "type": "address"
        }
      ],
      "name": "getDonation",
      "outputs": [
        {
          "internalType": "uint256",
          "name": "",
          "type": "uint256"
        }
      ],
      "stateMutability": "view",
      "type": "function"
    },
    {
      "inputs": [],
      "name": "getDonorCount",
      "outputs": [
        {
          "internalType": "uint256",
          "name": "",
          "type": "uint256"
        }
      ],
      "stateMutability": "view",
      "type": "function"
    },
    {
      "inputs": [],
      "name": "owner",
      "outputs": [
        {
          "internalType": "address",
          "name": "",
          "type": "address"
        }
      ],
      "stateMutability": "view",
      "type": "function"
    },
    {
      "inputs": [],
      "name": "totalDonations",
      "outputs": [
        {
          "internalType": "uint256",
          "name": "",
          "type": "uint256"
        }
      ],
      "stateMutability": "view",
      "type": "function"
    },
    {
      "inputs": [],
      "name": "withdraw",
      "outputs": [],
      "stateMutability": "nonpayable",
      "type": "function"
    }
  ],
  "bytecode": "0x6080604052348015600e575f5ffd5b505f80546001600160a01b031916331790556104558061002d5f395ff3fe608060405260043610610079575f3560e01c80638da5cb5b1161004c5780638da5cb5b14610100578063cc6cb19a14610136578063de2ed89314610161578063ed88c68e14610176575f5ffd5b80633ccfd60b1461007d578063410a1d321461009357806369bc2f1e146100da5780636f9fb98a146100ee575b5f5ffd5b348015610088575f5ffd5b5061009161017e565b005b34801561009e575f5ffd5b506100c76100ad3660046103cd565b6001600160a01b03165f9081526001602052604090205490565b6040519081526020015b60405180910390f35b3480156100e5575f5ffd5b506003546100c7565b3480156100f9575f5ffd5b50476100c7565b34801561010b575f5ffd5b505f5461011e906001600160a01b031681565b6040516001600160a01b0390911681526020016100d1565b348015610141575f5ffd5b506100c76101503660046103cd565b60016020525f908152604090205481565b34801561016c575f5ffd5b506100c760025481565b6100916102a6565b5f546001600160a01b031633146101e65760405162461bcd60e51b815260206004820152602160248201527f4f6e6c79206f776e65722063616e2063616c6c20746869732066756e6374696f6044820152603760f91b60648201526084015b60405180910390fd5b478061022b5760405162461bcd60e51b81526020600482015260146024820152734e6f2066756e647320746f20776974686472617760601b60448201526064016101dd565b5f80546040516001600160a01b039091169183156108fc02918491818181858888f19350505050158015610261573d5f5f3e3d5ffd5b505f546040518281526001600160a01b03909116907f7fcf532c15f0a6db0bd6d0e038bea71d30d808c7d98cb3bf7268a95bf5081b659060200160405180910390a250565b5f34116103045760405162461bcd60e51b815260206004820152602660248201527f446f6e6174696f6e20616d6f756e74206d75737420626520677265617465722060448201526507468616e20360d41b60648201526084016101dd565b335f90815260016020526040812054900361035b57600380546001810182555f919091527fc2575a0e9e593c00f959f8c92f12db2869c3395a3b0502d05e2516446f71f85b0180546001600160a01b031916331790555b335f90815260016020526040812080543492906103799084906103fa565b925050819055503460025f82825461039191906103fa565b909155505060405134815233907f264f630d9efa0d07053a31163641d9fcc0adafc9d9e76f1c37c2ce3a558d2c529060200160405180910390a2565b5f602082840312156103dd575f5ffd5b81356001600160a01b03811681146103f3575f5ffd5b9392505050565b8082018082111561041957634e487b7160e01b5f52601160045260245ffd5b9291505056fea26469706673582212209c90ae7dcd2285142e59c1fcedf928168eca12b73b1c7ff6b5ec982051d8e43e64736f6c634300081c0033",
  "linkReferences": {},
  "deployedLinkReferences": {},
  "immutableReferences": {},
  "inputSourceName": "project/contracts/BeggingContract.sol",
  "buildInfoId": "solc-0_8_28-e0033a9feb8a735e6cec26a8544fbfe669e66aac"
}